{
  "_format": "hh-sol-artifact-1",
  "contractName": "RebalanceModule",
  "sourceName": "contracts/modules/RebalanceModule.sol",
  "abi": [
    {
      "anonymous": false,
      "inputs": [
        {
          "indexed": true,
          "internalType": "address",
          "name": "vault",
          "type": "address"
        },
        {
          "indexed": false,
          "internalType": "uint256",
          "name": "thresholdBps",
          "type": "uint256"
        },
        {
          "indexed": false,
          "internalType": "address",
          "name": "from",
          "type": "address"
        },
        {
          "indexed": false,
          "internalType": "address",
          "name": "to",
          "type": "address"
        }
      ],
      "name": "Rebalanced",
      "type": "event"
    },
    {
      "inputs": [
        {
          "internalType": "address",
          "name": "vault",
          "type": "address"
        },
        {
          "internalType": "bytes",
          "name": "data",
          "type": "bytes"
        }
      ],
      "name": "runStrategy",
      "outputs": [],
      "stateMutability": "nonpayable",
      "type": "function"
    }
  ],
  "bytecode": "0x608060405234801561001057600080fd5b506101e1806100206000396000f3fe608060405234801561001057600080fd5b506004361061002b5760003560e01c8063fc341e5f14610030575b600080fd5b61004361003e3660046100de565b610045565b005b600080808061005685870187610163565b9350935093509350866001600160a01b03167f3b4d9bc24599fdda4435d4c674fd19cc166208cf877c3f5de5153bee57f7d16f8585856040516100b5939291909283526001600160a01b03918216602084015216604082015260600190565b60405180910390a250505050505050565b6001600160a01b03811681146100db57600080fd5b50565b6000806000604084860312156100f357600080fd5b83356100fe816100c6565b9250602084013567ffffffffffffffff8082111561011b57600080fd5b818601915086601f83011261012f57600080fd5b81358181111561013e57600080fd5b87602082850101111561015057600080fd5b6020830194508093505050509250925092565b6000806000806080858703121561017957600080fd5b84359350602085013561018b816100c6565b9250604085013561019b816100c6565b939692955092936060013592505056fea26469706673582212204cfef106b0a914ea5cf437541e778dab0653d835bdebbc95d0b8371bd445b52a64736f6c63430008140033",
  "linkReferences": {},
  "deployedLinkReferences": {}
}