{
  "_format": "hh-sol-artifact-1",
  "contractName": "LendingModule",
  "sourceName": "contracts/modules/LeadingModule.sol",
  "abi": [
    {
      "anonymous": false,
      "inputs": [
        {
          "indexed": true,
          "internalType": "address",
          "name": "vault",
          "type": "address"
        },
        {
          "indexed": true,
          "internalType": "address",
          "name": "protocol",
          "type": "address"
        },
        {
          "indexed": false,
          "internalType": "uint256",
          "name": "amount",
          "type": "uint256"
        }
      ],
      "name": "Lent",
      "type": "event"
    },
    {
      "anonymous": false,
      "inputs": [
        {
          "indexed": true,
          "internalType": "address",
          "name": "vault",
          "type": "address"
        },
        {
          "indexed": true,
          "internalType": "address",
          "name": "protocol",
          "type": "address"
        },
        {
          "indexed": false,
          "internalType": "uint256",
          "name": "amount",
          "type": "uint256"
        }
      ],
      "name": "Unlent",
      "type": "event"
    },
    {
      "inputs": [
        {
          "internalType": "address",
          "name": "vault",
          "type": "address"
        },
        {
          "internalType": "bytes",
          "name": "data",
          "type": "bytes"
        }
      ],
      "name": "runStrategy",
      "outputs": [],
      "stateMutability": "nonpayable",
      "type": "function"
    }
  ],
  "bytecode": "0x608060405234801561001057600080fd5b50610228806100206000396000f3fe608060405234801561001057600080fd5b506004361061002b5760003560e01c8063fc341e5f14610030575b600080fd5b61004361003e366004610126565b610045565b005b60008080610055848601866101ab565b9250925092508260ff166000036100b857816001600160a01b0316866001600160a01b03167f77923b891d8a67f312da442dabc3023ac6e6d9d32bd24a24a64685d703939886836040516100ab91815260200190565b60405180910390a3610106565b816001600160a01b0316866001600160a01b03167f71c89d2af0c6e2e6768b7e3caeeca6d1be3f72a27254a5518190e372a7ccaf8e836040516100fd91815260200190565b60405180910390a35b505050505050565b6001600160a01b038116811461012357600080fd5b50565b60008060006040848603121561013b57600080fd5b83356101468161010e565b9250602084013567ffffffffffffffff8082111561016357600080fd5b818601915086601f83011261017757600080fd5b81358181111561018657600080fd5b87602082850101111561019857600080fd5b6020830194508093505050509250925092565b6000806000606084860312156101c057600080fd5b833560ff811681146101d157600080fd5b925060208401356101e18161010e565b92959294505050604091909101359056fea2646970667358221220c26a2d6df8ac4936af7a820227017ca0c6e3972deb940696ccb6cff51d9777c064736f6c63430008140033",
  "linkReferences": {},
  "deployedLinkReferences": {}
}