{
  "_format": "hh-sol-artifact-1",
  "contractName": "StrategyVault",
  "sourceName": "contracts/core/StrategyVault.sol",
  "abi": [
    {
      "inputs": [
        {
          "internalType": "string",
          "name": "_name",
          "type": "string"
        },
        {
          "internalType": "string",
          "name": "_symbol",
          "type": "string"
        },
        {
          "internalType": "address",
          "name": "_manager",
          "type": "address"
        },
        {
          "internalType": "address",
          "name": "_strategyModule",
          "type": "address"
        }
      ],
      "stateMutability": "nonpayable",
      "type": "constructor"
    },
    {
      "anonymous": false,
      "inputs": [
        {
          "indexed": true,
          "internalType": "address",
          "name": "owner",
          "type": "address"
        },
        {
          "indexed": true,
          "internalType": "address",
          "name": "spender",
          "type": "address"
        },
        {
          "indexed": false,
          "internalType": "uint256",
          "name": "value",
          "type": "uint256"
        }
      ],
      "name": "Approval",
      "type": "event"
    },
    {
      "anonymous": false,
      "inputs": [
        {
          "indexed": true,
          "internalType": "address",
          "name": "user",
          "type": "address"
        },
        {
          "indexed": false,
          "internalType": "uint256",
          "name": "amount",
          "type": "uint256"
        }
      ],
      "name": "Deposited",
      "type": "event"
    },
    {
      "anonymous": false,
      "inputs": [
        {
          "indexed": false,
          "internalType": "uint256",
          "name": "managementFeeBps",
          "type": "uint256"
        },
        {
          "indexed": false,
          "internalType": "address",
          "name": "feeRecipient",
          "type": "address"
        }
      ],
      "name": "FeeParamsUpdated",
      "type": "event"
    },
    {
      "anonymous": false,
      "inputs": [
        {
          "indexed": true,
          "internalType": "address",
          "name": "previousOwner",
          "type": "address"
        },
        {
          "indexed": true,
          "internalType": "address",
          "name": "newOwner",
          "type": "address"
        }
      ],
      "name": "OwnershipTransferred",
      "type": "event"
    },
    {
      "anonymous": false,
      "inputs": [
        {
          "indexed": true,
          "internalType": "address",
          "name": "strategy",
          "type": "address"
        },
        {
          "indexed": false,
          "internalType": "uint256",
          "name": "timestamp",
          "type": "uint256"
        }
      ],
      "name": "StrategyExecuted",
      "type": "event"
    },
    {
      "anonymous": false,
      "inputs": [
        {
          "indexed": true,
          "internalType": "address",
          "name": "oldStrategy",
          "type": "address"
        },
        {
          "indexed": true,
          "internalType": "address",
          "name": "newStrategy",
          "type": "address"
        }
      ],
      "name": "StrategyUpdated",
      "type": "event"
    },
    {
      "anonymous": false,
      "inputs": [
        {
          "indexed": true,
          "internalType": "address",
          "name": "from",
          "type": "address"
        },
        {
          "indexed": true,
          "internalType": "address",
          "name": "to",
          "type": "address"
        },
        {
          "indexed": false,
          "internalType": "uint256",
          "name": "value",
          "type": "uint256"
        }
      ],
      "name": "Transfer",
      "type": "event"
    },
    {
      "anonymous": false,
      "inputs": [
        {
          "indexed": true,
          "internalType": "address",
          "name": "user",
          "type": "address"
        },
        {
          "indexed": false,
          "internalType": "uint256",
          "name": "amount",
          "type": "uint256"
        }
      ],
      "name": "Withdrawn",
      "type": "event"
    },
    {
      "inputs": [
        {
          "internalType": "uint256",
          "name": "amount",
          "type": "uint256"
        }
      ],
      "name": "accrueManagementFee",
      "outputs": [],
      "stateMutability": "nonpayable",
      "type": "function"
    },
    {
      "inputs": [
        {
          "internalType": "address",
          "name": "owner",
          "type": "address"
        },
        {
          "internalType": "address",
          "name": "spender",
          "type": "address"
        }
      ],
      "name": "allowance",
      "outputs": [
        {
          "internalType": "uint256",
          "name": "",
          "type": "uint256"
        }
      ],
      "stateMutability": "view",
      "type": "function"
    },
    {
      "inputs": [
        {
          "internalType": "address",
          "name": "spender",
          "type": "address"
        },
        {
          "internalType": "uint256",
          "name": "amount",
          "type": "uint256"
        }
      ],
      "name": "approve",
      "outputs": [
        {
          "internalType": "bool",
          "name": "",
          "type": "bool"
        }
      ],
      "stateMutability": "nonpayable",
      "type": "function"
    },
    {
      "inputs": [
        {
          "internalType": "address",
          "name": "account",
          "type": "address"
        }
      ],
      "name": "balanceOf",
      "outputs": [
        {
          "internalType": "uint256",
          "name": "",
          "type": "uint256"
        }
      ],
      "stateMutability": "view",
      "type": "function"
    },
    {
      "inputs": [],
      "name": "baseAsset",
      "outputs": [
        {
          "internalType": "address",
          "name": "",
          "type": "address"
        }
      ],
      "stateMutability": "view",
      "type": "function"
    },
    {
      "inputs": [],
      "name": "decimals",
      "outputs": [
        {
          "internalType": "uint8",
          "name": "",
          "type": "uint8"
        }
      ],
      "stateMutability": "view",
      "type": "function"
    },
    {
      "inputs": [
        {
          "internalType": "address",
          "name": "spender",
          "type": "address"
        },
        {
          "internalType": "uint256",
          "name": "subtractedValue",
          "type": "uint256"
        }
      ],
      "name": "decreaseAllowance",
      "outputs": [
        {
          "internalType": "bool",
          "name": "",
          "type": "bool"
        }
      ],
      "stateMutability": "nonpayable",
      "type": "function"
    },
    {
      "inputs": [],
      "name": "deposit",
      "outputs": [],
      "stateMutability": "payable",
      "type": "function"
    },
    {
      "inputs": [
        {
          "internalType": "bytes",
          "name": "data",
          "type": "bytes"
        }
      ],
      "name": "executeStrategy",
      "outputs": [],
      "stateMutability": "nonpayable",
      "type": "function"
    },
    {
      "inputs": [],
      "name": "feeRecipient",
      "outputs": [
        {
          "internalType": "address",
          "name": "",
          "type": "address"
        }
      ],
      "stateMutability": "view",
      "type": "function"
    },
    {
      "inputs": [
        {
          "internalType": "address",
          "name": "spender",
          "type": "address"
        },
        {
          "internalType": "uint256",
          "name": "addedValue",
          "type": "uint256"
        }
      ],
      "name": "increaseAllowance",
      "outputs": [
        {
          "internalType": "bool",
          "name": "",
          "type": "bool"
        }
      ],
      "stateMutability": "nonpayable",
      "type": "function"
    },
    {
      "inputs": [],
      "name": "managementFeeBps",
      "outputs": [
        {
          "internalType": "uint256",
          "name": "",
          "type": "uint256"
        }
      ],
      "stateMutability": "view",
      "type": "function"
    },
    {
      "inputs": [],
      "name": "manager",
      "outputs": [
        {
          "internalType": "address",
          "name": "",
          "type": "address"
        }
      ],
      "stateMutability": "view",
      "type": "function"
    },
    {
      "inputs": [],
      "name": "name",
      "outputs": [
        {
          "internalType": "string",
          "name": "",
          "type": "string"
        }
      ],
      "stateMutability": "view",
      "type": "function"
    },
    {
      "inputs": [],
      "name": "owner",
      "outputs": [
        {
          "internalType": "address",
          "name": "",
          "type": "address"
        }
      ],
      "stateMutability": "view",
      "type": "function"
    },
    {
      "inputs": [],
      "name": "renounceOwnership",
      "outputs": [],
      "stateMutability": "nonpayable",
      "type": "function"
    },
    {
      "inputs": [
        {
          "internalType": "uint256",
          "name": "_managementFeeBps",
          "type": "uint256"
        },
        {
          "internalType": "address",
          "name": "_feeRecipient",
          "type": "address"
        }
      ],
      "name": "setFeeParams",
      "outputs": [],
      "stateMutability": "nonpayable",
      "type": "function"
    },
    {
      "inputs": [],
      "name": "strategy",
      "outputs": [
        {
          "internalType": "contract IStrategyModule",
          "name": "",
          "type": "address"
        }
      ],
      "stateMutability": "view",
      "type": "function"
    },
    {
      "inputs": [],
      "name": "symbol",
      "outputs": [
        {
          "internalType": "string",
          "name": "",
          "type": "string"
        }
      ],
      "stateMutability": "view",
      "type": "function"
    },
    {
      "inputs": [],
      "name": "totalAssets",
      "outputs": [
        {
          "internalType": "uint256",
          "name": "",
          "type": "uint256"
        }
      ],
      "stateMutability": "view",
      "type": "function"
    },
    {
      "inputs": [],
      "name": "totalSupply",
      "outputs": [
        {
          "internalType": "uint256",
          "name": "",
          "type": "uint256"
        }
      ],
      "stateMutability": "view",
      "type": "function"
    },
    {
      "inputs": [
        {
          "internalType": "address",
          "name": "to",
          "type": "address"
        },
        {
          "internalType": "uint256",
          "name": "amount",
          "type": "uint256"
        }
      ],
      "name": "transfer",
      "outputs": [
        {
          "internalType": "bool",
          "name": "",
          "type": "bool"
        }
      ],
      "stateMutability": "nonpayable",
      "type": "function"
    },
    {
      "inputs": [
        {
          "internalType": "address",
          "name": "from",
          "type": "address"
        },
        {
          "internalType": "address",
          "name": "to",
          "type": "address"
        },
        {
          "internalType": "uint256",
          "name": "amount",
          "type": "uint256"
        }
      ],
      "name": "transferFrom",
      "outputs": [
        {
          "internalType": "bool",
          "name": "",
          "type": "bool"
        }
      ],
      "stateMutability": "nonpayable",
      "type": "function"
    },
    {
      "inputs": [
        {
          "internalType": "address",
          "name": "newOwner",
          "type": "address"
        }
      ],
      "name": "transferOwnership",
      "outputs": [],
      "stateMutability": "nonpayable",
      "type": "function"
    },
    {
      "inputs": [
        {
          "internalType": "address",
          "name": "newStrategy",
          "type": "address"
        }
      ],
      "name": "updateStrategy",
      "outputs": [],
      "stateMutability": "nonpayable",
      "type": "function"
    },
    {
      "inputs": [
        {
          "internalType": "uint256",
          "name": "shares",
          "type": "uint256"
        }
      ],
      "name": "withdraw",
      "outputs": [],
      "stateMutability": "nonpayable",
      "type": "function"
    },
    {
      "stateMutability": "payable",
      "type": "receive"
    }
  ],
  "bytecode": "0x60806040523480156200001157600080fd5b50604051620018ac380380620018ac8339810160408190526200003491620001f0565b838360036200004483826200030e565b5060046200005382826200030e565b50506001600555506200006633620000bc565b600780546001600160a01b038085166001600160a01b0319928316811790935560088054918516918316919091179055600b805490911690911790556000600a55620000b282620000bc565b50505050620003da565b600680546001600160a01b038381166001600160a01b0319831681179093556040519116919082907f8be0079c531659141344cd1fd0a4f28419497f9722a3daafe3b4186f6b6457e090600090a35050565b634e487b7160e01b600052604160045260246000fd5b600082601f8301126200013657600080fd5b81516001600160401b03808211156200015357620001536200010e565b604051601f8301601f19908116603f011681019082821181831017156200017e576200017e6200010e565b816040528381526020925086838588010111156200019b57600080fd5b600091505b83821015620001bf5785820183015181830184015290820190620001a0565b600093810190920192909252949350505050565b80516001600160a01b0381168114620001eb57600080fd5b919050565b600080600080608085870312156200020757600080fd5b84516001600160401b03808211156200021f57600080fd5b6200022d8883890162000124565b955060208701519150808211156200024457600080fd5b50620002538782880162000124565b9350506200026460408601620001d3565b91506200027460608601620001d3565b905092959194509250565b600181811c908216806200029457607f821691505b602082108103620002b557634e487b7160e01b600052602260045260246000fd5b50919050565b601f8211156200030957600081815260208120601f850160051c81016020861015620002e45750805b601f850160051c820191505b818110156200030557828155600101620002f0565b5050505b505050565b81516001600160401b038111156200032a576200032a6200010e565b62000342816200033b84546200027f565b84620002bb565b602080601f8311600181146200037a5760008415620003615750858301515b600019600386901b1c1916600185901b17855562000305565b600085815260208120601f198616915b82811015620003ab578886015182559484019460019091019084016200038a565b5085821015620003ca5787850151600019600388901b60f8161c191681555b5050505050600190811b01905550565b6114c280620003ea6000396000f3fe6080604052600436106101855760003560e01c8063715018a6116100d1578063a9059cbb1161008a578063daccaf6311610064578063daccaf6314610452578063dd62ed3e14610472578063ddc563ca14610492578063f2fde38b146104b257600080fd5b8063a9059cbb1461040a578063cdf456e11461042a578063d0e30db01461044a57600080fd5b8063715018a6146103625780638da5cb5b1461037757806392dce5641461039557806395d89b41146103b5578063a457c2d7146103ca578063a8c62e76146103ea57600080fd5b80632e1a7d4d1161013e578063395093511161011857806339509351146102b457806346904840146102d4578063481c6a751461030c57806370a082311461032c57600080fd5b80632e1a7d4d14610262578063313ce567146102825780633813c35a1461029e57600080fd5b806301e1d1141461019957806306fdde03146101bb578063095ea7b3146101dd57806318160ddd1461020d578063189936f61461022257806323b872dd1461024257600080fd5b36610194576101926104d2565b005b600080fd5b3480156101a557600080fd5b50475b6040519081526020015b60405180910390f35b3480156101c757600080fd5b506101d0610570565b6040516101b291906111f2565b3480156101e957600080fd5b506101fd6101f836600461125c565b610602565b60405190151581526020016101b2565b34801561021957600080fd5b506002546101a8565b34801561022e57600080fd5b5061019261023d366004611286565b61061c565b34801561024e57600080fd5b506101fd61025d3660046112f8565b610704565b34801561026e57600080fd5b5061019261027d366004611334565b610728565b34801561028e57600080fd5b50604051601281526020016101b2565b3480156102aa57600080fd5b506101a8600a5481565b3480156102c057600080fd5b506101fd6102cf36600461125c565b61086d565b3480156102e057600080fd5b50600b546102f4906001600160a01b031681565b6040516001600160a01b0390911681526020016101b2565b34801561031857600080fd5b506007546102f4906001600160a01b031681565b34801561033857600080fd5b506101a861034736600461134d565b6001600160a01b031660009081526020819052604090205490565b34801561036e57600080fd5b5061019261088f565b34801561038357600080fd5b506006546001600160a01b03166102f4565b3480156103a157600080fd5b506101926103b036600461136f565b6108a1565b3480156103c157600080fd5b506101d0610974565b3480156103d657600080fd5b506101fd6103e536600461125c565b610983565b3480156103f657600080fd5b506008546102f4906001600160a01b031681565b34801561041657600080fd5b506101fd61042536600461125c565b6109fe565b34801561043657600080fd5b506009546102f4906001600160a01b031681565b6101926104d2565b34801561045e57600080fd5b5061019261046d36600461134d565b610a0c565b34801561047e57600080fd5b506101a861048d36600461139b565b610a88565b34801561049e57600080fd5b506101926104ad366004611334565b610ab3565b3480156104be57600080fd5b506101926104cd36600461134d565b610b4b565b6104da610bc1565b600034116105255760405162461bcd60e51b815260206004820152601360248201527215985d5b1d0e881e995c9bc819195c1bdcda5d606a1b60448201526064015b60405180910390fd5b61052f3334610c1a565b60405134815233907f2da466a7b24304f47e87fa2e1e5a81b9831ce54fec19055ce277ca2f39ba42c49060200160405180910390a261056e6001600555565b565b60606003805461057f906113c5565b80601f01602080910402602001604051908101604052809291908181526020018280546105ab906113c5565b80156105f85780601f106105cd576101008083540402835291602001916105f8565b820191906000526020600020905b8154815290600101906020018083116105db57829003601f168201915b5050505050905090565b600033610610818585610cd9565b60019150505b92915050565b6007546001600160a01b031633146106465760405162461bcd60e51b815260040161051c906113ff565b61064e610bc1565b60085460405163fc341e5f60e01b81526001600160a01b039091169063fc341e5f906106829030908690869060040161142b565b600060405180830381600087803b15801561069c57600080fd5b505af11580156106b0573d6000803e3d6000fd5b50506008546040514281526001600160a01b0390911692507fb811d939986ff732fa5e25c43b2791456c5d775210b54de1b1c6ddce94f05129915060200160405180910390a26107006001600555565b5050565b600033610712858285610dfe565b61071d858585610e78565b506001949350505050565b610730610bc1565b3360009081526020819052604090205481111561078f5760405162461bcd60e51b815260206004820152601a60248201527f5661756c743a20696e73756666696369656e7420736861726573000000000000604482015260640161051c565b610799338261101c565b604051600090339083908381818185875af1925050503d80600081146107db576040519150601f19603f3d011682016040523d82523d6000602084013e6107e0565b606091505b505090508061082a5760405162461bcd60e51b815260206004820152601660248201527515985d5b1d0e881d1c985b9cd9995c8819985a5b195960521b604482015260640161051c565b60405182815233907f7084f5476618d8e60b11ef0d7d3f06914655adb8793e28ff7f018d4c76d505d59060200160405180910390a25061086a6001600555565b50565b6000336106108185856108808383610a88565b61088a919061146b565b610cd9565b610897611146565b61056e60006111a0565b6007546001600160a01b031633146108cb5760405162461bcd60e51b815260040161051c906113ff565b6101f48211156109135760405162461bcd60e51b81526020600482015260136024820152720acc2ead8e87440cccaca40e8dede40d0d2ced606b1b604482015260640161051c565b600a829055600b80546001600160a01b0319166001600160a01b0383169081179091556040805184815260208101929092527feecc969cd8da3140016e16b0603215de782af59713abfc5055d917b88f4a7b91910160405180910390a15050565b60606004805461057f906113c5565b600033816109918286610a88565b9050838110156109f15760405162461bcd60e51b815260206004820152602560248201527f45524332303a2064656372656173656420616c6c6f77616e63652062656c6f77604482015264207a65726f60d81b606482015260840161051c565b61071d8286868403610cd9565b600033610610818585610e78565b6007546001600160a01b03163314610a365760405162461bcd60e51b815260040161051c906113ff565b600880546001600160a01b038381166001600160a01b0319831681179093556040519116919082907fe4cec16b1a7e6b7979e923da619a8b1e5fd0f0fb6e5c1cf647f350430ee61ca990600090a35050565b6001600160a01b03918216600090815260016020908152604080832093909416825291909152205490565b6007546001600160a01b03163314610add5760405162461bcd60e51b815260040161051c906113ff565b600b546001600160a01b0316610b355760405162461bcd60e51b815260206004820152601760248201527f5661756c743a206e6f2066656520726563697069656e74000000000000000000604482015260640161051c565b600b5461086a906001600160a01b031682610c1a565b610b53611146565b6001600160a01b038116610bb85760405162461bcd60e51b815260206004820152602660248201527f4f776e61626c653a206e6577206f776e657220697320746865207a65726f206160448201526564647265737360d01b606482015260840161051c565b61086a816111a0565b600260055403610c135760405162461bcd60e51b815260206004820152601f60248201527f5265656e7472616e637947756172643a207265656e7472616e742063616c6c00604482015260640161051c565b6002600555565b6001600160a01b038216610c705760405162461bcd60e51b815260206004820152601f60248201527f45524332303a206d696e7420746f20746865207a65726f206164647265737300604482015260640161051c565b8060026000828254610c82919061146b565b90915550506001600160a01b038216600081815260208181526040808320805486019055518481527fddf252ad1be2c89b69c2b068fc378daa952ba7f163c4a11628f55a4df523b3ef910160405180910390a35050565b6001600160a01b038316610d3b5760405162461bcd60e51b8152602060048201526024808201527f45524332303a20617070726f76652066726f6d20746865207a65726f206164646044820152637265737360e01b606482015260840161051c565b6001600160a01b038216610d9c5760405162461bcd60e51b815260206004820152602260248201527f45524332303a20617070726f766520746f20746865207a65726f206164647265604482015261737360f01b606482015260840161051c565b6001600160a01b0383811660008181526001602090815260408083209487168084529482529182902085905590518481527f8c5be1e5ebec7d5bd14f71427d1e84f3dd0314c0f7b2291e5b200ac8c7c3b92591015b60405180910390a3505050565b6000610e0a8484610a88565b90506000198114610e725781811015610e655760405162461bcd60e51b815260206004820152601d60248201527f45524332303a20696e73756666696369656e7420616c6c6f77616e6365000000604482015260640161051c565b610e728484848403610cd9565b50505050565b6001600160a01b038316610edc5760405162461bcd60e51b815260206004820152602560248201527f45524332303a207472616e736665722066726f6d20746865207a65726f206164604482015264647265737360d81b606482015260840161051c565b6001600160a01b038216610f3e5760405162461bcd60e51b815260206004820152602360248201527f45524332303a207472616e7366657220746f20746865207a65726f206164647260448201526265737360e81b606482015260840161051c565b6001600160a01b03831660009081526020819052604090205481811015610fb65760405162461bcd60e51b815260206004820152602660248201527f45524332303a207472616e7366657220616d6f756e7420657863656564732062604482015265616c616e636560d01b606482015260840161051c565b6001600160a01b03848116600081815260208181526040808320878703905593871680835291849020805487019055925185815290927fddf252ad1be2c89b69c2b068fc378daa952ba7f163c4a11628f55a4df523b3ef910160405180910390a3610e72565b6001600160a01b03821661107c5760405162461bcd60e51b815260206004820152602160248201527f45524332303a206275726e2066726f6d20746865207a65726f206164647265736044820152607360f81b606482015260840161051c565b6001600160a01b038216600090815260208190526040902054818110156110f05760405162461bcd60e51b815260206004820152602260248201527f45524332303a206275726e20616d6f756e7420657863656564732062616c616e604482015261636560f01b606482015260840161051c565b6001600160a01b0383166000818152602081815260408083208686039055600280548790039055518581529192917fddf252ad1be2c89b69c2b068fc378daa952ba7f163c4a11628f55a4df523b3ef9101610df1565b6006546001600160a01b0316331461056e5760405162461bcd60e51b815260206004820181905260248201527f4f776e61626c653a2063616c6c6572206973206e6f7420746865206f776e6572604482015260640161051c565b600680546001600160a01b038381166001600160a01b0319831681179093556040519116919082907f8be0079c531659141344cd1fd0a4f28419497f9722a3daafe3b4186f6b6457e090600090a35050565b600060208083528351808285015260005b8181101561121f57858101830151858201604001528201611203565b506000604082860101526040601f19601f8301168501019250505092915050565b80356001600160a01b038116811461125757600080fd5b919050565b6000806040838503121561126f57600080fd5b61127883611240565b946020939093013593505050565b6000806020838503121561129957600080fd5b823567ffffffffffffffff808211156112b157600080fd5b818501915085601f8301126112c557600080fd5b8135818111156112d457600080fd5b8660208285010111156112e657600080fd5b60209290920196919550909350505050565b60008060006060848603121561130d57600080fd5b61131684611240565b925061132460208501611240565b9150604084013590509250925092565b60006020828403121561134657600080fd5b5035919050565b60006020828403121561135f57600080fd5b61136882611240565b9392505050565b6000806040838503121561138257600080fd5b8235915061139260208401611240565b90509250929050565b600080604083850312156113ae57600080fd5b6113b783611240565b915061139260208401611240565b600181811c908216806113d957607f821691505b6020821081036113f957634e487b7160e01b600052602260045260246000fd5b50919050565b6020808252601290820152712b30bab63a1d103737ba1036b0b730b3b2b960711b604082015260600190565b6001600160a01b03841681526040602082018190528101829052818360608301376000818301606090810191909152601f909201601f1916010192915050565b8082018082111561061657634e487b7160e01b600052601160045260246000fdfea2646970667358221220885fbec97869338f85f74961e9c6ee1c18bd2976d30b2a74f6640b41c0ee03e764736f6c63430008140033",
  "linkReferences": {},
  "deployedLinkReferences": {}
}